{
  "contractName": "MyToken",
  "abi": [
    {
      "inputs": [],
      "stateMutability": "nonpayable",
      "type": "constructor"
    },
    {
      "anonymous": false,
      "inputs": [
        {
          "indexed": true,
          "internalType": "address",
          "name": "owner",
          "type": "address"
        },
        {
          "indexed": true,
          "internalType": "address",
          "name": "spender",
          "type": "address"
        },
        {
          "indexed": false,
          "internalType": "uint256",
          "name": "value",
          "type": "uint256"
        }
      ],
      "name": "Approval",
      "type": "event"
    },
    {
      "anonymous": false,
      "inputs": [
        {
          "indexed": true,
          "internalType": "address",
          "name": "delegator",
          "type": "address"
        },
        {
          "indexed": true,
          "internalType": "address",
          "name": "fromDelegate",
          "type": "address"
        },
        {
          "indexed": true,
          "internalType": "address",
          "name": "toDelegate",
          "type": "address"
        }
      ],
      "name": "DelegateChanged",
      "type": "event"
    },
    {
      "anonymous": false,
      "inputs": [
        {
          "indexed": true,
          "internalType": "address",
          "name": "delegate",
          "type": "address"
        },
        {
          "indexed": false,
          "internalType": "uint256",
          "name": "previousBalance",
          "type": "uint256"
        },
        {
          "indexed": false,
          "internalType": "uint256",
          "name": "newBalance",
          "type": "uint256"
        }
      ],
      "name": "DelegateVotesChanged",
      "type": "event"
    },
    {
      "anonymous": false,
      "inputs": [
        {
          "indexed": false,
          "internalType": "address",
          "name": "account",
          "type": "address"
        }
      ],
      "name": "Paused",
      "type": "event"
    },
    {
      "anonymous": false,
      "inputs": [
        {
          "indexed": true,
          "internalType": "bytes32",
          "name": "role",
          "type": "bytes32"
        },
        {
          "indexed": true,
          "internalType": "bytes32",
          "name": "previousAdminRole",
          "type": "bytes32"
        },
        {
          "indexed": true,
          "internalType": "bytes32",
          "name": "newAdminRole",
          "type": "bytes32"
        }
      ],
      "name": "RoleAdminChanged",
      "type": "event"
    },
    {
      "anonymous": false,
      "inputs": [
        {
          "indexed": true,
          "internalType": "bytes32",
          "name": "role",
          "type": "bytes32"
        },
        {
          "indexed": true,
          "internalType": "address",
          "name": "account",
          "type": "address"
        },
        {
          "indexed": true,
          "internalType": "address",
          "name": "sender",
          "type": "address"
        }
      ],
      "name": "RoleGranted",
      "type": "event"
    },
    {
      "anonymous": false,
      "inputs": [
        {
          "indexed": true,
          "internalType": "bytes32",
          "name": "role",
          "type": "bytes32"
        },
        {
          "indexed": true,
          "internalType": "address",
          "name": "account",
          "type": "address"
        },
        {
          "indexed": true,
          "internalType": "address",
          "name": "sender",
          "type": "address"
        }
      ],
      "name": "RoleRevoked",
      "type": "event"
    },
    {
      "anonymous": false,
      "inputs": [
        {
          "indexed": false,
          "internalType": "uint256",
          "name": "id",
          "type": "uint256"
        }
      ],
      "name": "Snapshot",
      "type": "event"
    },
    {
      "anonymous": false,
      "inputs": [
        {
          "indexed": true,
          "internalType": "address",
          "name": "from",
          "type": "address"
        },
        {
          "indexed": true,
          "internalType": "address",
          "name": "to",
          "type": "address"
        },
        {
          "indexed": false,
          "internalType": "uint256",
          "name": "value",
          "type": "uint256"
        }
      ],
      "name": "Transfer",
      "type": "event"
    },
    {
      "anonymous": false,
      "inputs": [
        {
          "indexed": false,
          "internalType": "address",
          "name": "account",
          "type": "address"
        }
      ],
      "name": "Unpaused",
      "type": "event"
    },
    {
      "inputs": [],
      "name": "DEFAULT_ADMIN_ROLE",
      "outputs": [
        {
          "internalType": "bytes32",
          "name": "",
          "type": "bytes32"
        }
      ],
      "stateMutability": "view",
      "type": "function"
    },
    {
      "inputs": [],
      "name": "DOMAIN_SEPARATOR",
      "outputs": [
        {
          "internalType": "bytes32",
          "name": "",
          "type": "bytes32"
        }
      ],
      "stateMutability": "view",
      "type": "function"
    },
    {
      "inputs": [],
      "name": "MINTER_ROLE",
      "outputs": [
        {
          "internalType": "bytes32",
          "name": "",
          "type": "bytes32"
        }
      ],
      "stateMutability": "view",
      "type": "function"
    },
    {
      "inputs": [],
      "name": "PAUSER_ROLE",
      "outputs": [
        {
          "internalType": "bytes32",
          "name": "",
          "type": "bytes32"
        }
      ],
      "stateMutability": "view",
      "type": "function"
    },
    {
      "inputs": [],
      "name": "SNAPSHOT_ROLE",
      "outputs": [
        {
          "internalType": "bytes32",
          "name": "",
          "type": "bytes32"
        }
      ],
      "stateMutability": "view",
      "type": "function"
    },
    {
      "inputs": [
        {
          "internalType": "address",
          "name": "owner",
          "type": "address"
        },
        {
          "internalType": "address",
          "name": "spender",
          "type": "address"
        }
      ],
      "name": "allowance",
      "outputs": [
        {
          "internalType": "uint256",
          "name": "",
          "type": "uint256"
        }
      ],
      "stateMutability": "view",
      "type": "function"
    },
    {
      "inputs": [
        {
          "internalType": "address",
          "name": "spender",
          "type": "address"
        },
        {
          "internalType": "uint256",
          "name": "amount",
          "type": "uint256"
        }
      ],
      "name": "approve",
      "outputs": [
        {
          "internalType": "bool",
          "name": "",
          "type": "bool"
        }
      ],
      "stateMutability": "nonpayable",
      "type": "function"
    },
    {
      "inputs": [
        {
          "internalType": "address",
          "name": "account",
          "type": "address"
        }
      ],
      "name": "balanceOf",
      "outputs": [
        {
          "internalType": "uint256",
          "name": "",
          "type": "uint256"
        }
      ],
      "stateMutability": "view",
      "type": "function"
    },
    {
      "inputs": [
        {
          "internalType": "address",
          "name": "account",
          "type": "address"
        },
        {
          "internalType": "uint256",
          "name": "snapshotId",
          "type": "uint256"
        }
      ],
      "name": "balanceOfAt",
      "outputs": [
        {
          "internalType": "uint256",
          "name": "",
          "type": "uint256"
        }
      ],
      "stateMutability": "view",
      "type": "function"
    },
    {
      "inputs": [
        {
          "internalType": "uint256",
          "name": "amount",
          "type": "uint256"
        }
      ],
      "name": "burn",
      "outputs": [],
      "stateMutability": "nonpayable",
      "type": "function"
    },
    {
      "inputs": [
        {
          "internalType": "address",
          "name": "account",
          "type": "address"
        },
        {
          "internalType": "uint256",
          "name": "amount",
          "type": "uint256"
        }
      ],
      "name": "burnFrom",
      "outputs": [],
      "stateMutability": "nonpayable",
      "type": "function"
    },
    {
      "inputs": [
        {
          "internalType": "address",
          "name": "account",
          "type": "address"
        },
        {
          "internalType": "uint32",
          "name": "pos",
          "type": "uint32"
        }
      ],
      "name": "checkpoints",
      "outputs": [
        {
          "components": [
            {
              "internalType": "uint32",
              "name": "fromBlock",
              "type": "uint32"
            },
            {
              "internalType": "uint224",
              "name": "votes",
              "type": "uint224"
            }
          ],
          "internalType": "struct ERC20Votes.Checkpoint",
          "name": "",
          "type": "tuple"
        }
      ],
      "stateMutability": "view",
      "type": "function"
    },
    {
      "inputs": [],
      "name": "decimals",
      "outputs": [
        {
          "internalType": "uint8",
          "name": "",
          "type": "uint8"
        }
      ],
      "stateMutability": "view",
      "type": "function"
    },
    {
      "inputs": [
        {
          "internalType": "address",
          "name": "spender",
          "type": "address"
        },
        {
          "internalType": "uint256",
          "name": "subtractedValue",
          "type": "uint256"
        }
      ],
      "name": "decreaseAllowance",
      "outputs": [
        {
          "internalType": "bool",
          "name": "",
          "type": "bool"
        }
      ],
      "stateMutability": "nonpayable",
      "type": "function"
    },
    {
      "inputs": [
        {
          "internalType": "address",
          "name": "delegatee",
          "type": "address"
        }
      ],
      "name": "delegate",
      "outputs": [],
      "stateMutability": "nonpayable",
      "type": "function"
    },
    {
      "inputs": [
        {
          "internalType": "address",
          "name": "delegatee",
          "type": "address"
        },
        {
          "internalType": "uint256",
          "name": "nonce",
          "type": "uint256"
        },
        {
          "internalType": "uint256",
          "name": "expiry",
          "type": "uint256"
        },
        {
          "internalType": "uint8",
          "name": "v",
          "type": "uint8"
        },
        {
          "internalType": "bytes32",
          "name": "r",
          "type": "bytes32"
        },
        {
          "internalType": "bytes32",
          "name": "s",
          "type": "bytes32"
        }
      ],
      "name": "delegateBySig",
      "outputs": [],
      "stateMutability": "nonpayable",
      "type": "function"
    },
    {
      "inputs": [
        {
          "internalType": "address",
          "name": "account",
          "type": "address"
        }
      ],
      "name": "delegates",
      "outputs": [
        {
          "internalType": "address",
          "name": "",
          "type": "address"
        }
      ],
      "stateMutability": "view",
      "type": "function"
    },
    {
      "inputs": [
        {
          "internalType": "uint256",
          "name": "blockNumber",
          "type": "uint256"
        }
      ],
      "name": "getPastTotalSupply",
      "outputs": [
        {
          "internalType": "uint256",
          "name": "",
          "type": "uint256"
        }
      ],
      "stateMutability": "view",
      "type": "function"
    },
    {
      "inputs": [
        {
          "internalType": "address",
          "name": "account",
          "type": "address"
        },
        {
          "internalType": "uint256",
          "name": "blockNumber",
          "type": "uint256"
        }
      ],
      "name": "getPastVotes",
      "outputs": [
        {
          "internalType": "uint256",
          "name": "",
          "type": "uint256"
        }
      ],
      "stateMutability": "view",
      "type": "function"
    },
    {
      "inputs": [
        {
          "internalType": "bytes32",
          "name": "role",
          "type": "bytes32"
        }
      ],
      "name": "getRoleAdmin",
      "outputs": [
        {
          "internalType": "bytes32",
          "name": "",
          "type": "bytes32"
        }
      ],
      "stateMutability": "view",
      "type": "function"
    },
    {
      "inputs": [
        {
          "internalType": "address",
          "name": "account",
          "type": "address"
        }
      ],
      "name": "getVotes",
      "outputs": [
        {
          "internalType": "uint256",
          "name": "",
          "type": "uint256"
        }
      ],
      "stateMutability": "view",
      "type": "function"
    },
    {
      "inputs": [
        {
          "internalType": "bytes32",
          "name": "role",
          "type": "bytes32"
        },
        {
          "internalType": "address",
          "name": "account",
          "type": "address"
        }
      ],
      "name": "grantRole",
      "outputs": [],
      "stateMutability": "nonpayable",
      "type": "function"
    },
    {
      "inputs": [
        {
          "internalType": "bytes32",
          "name": "role",
          "type": "bytes32"
        },
        {
          "internalType": "address",
          "name": "account",
          "type": "address"
        }
      ],
      "name": "hasRole",
      "outputs": [
        {
          "internalType": "bool",
          "name": "",
          "type": "bool"
        }
      ],
      "stateMutability": "view",
      "type": "function"
    },
    {
      "inputs": [
        {
          "internalType": "address",
          "name": "spender",
          "type": "address"
        },
        {
          "internalType": "uint256",
          "name": "addedValue",
          "type": "uint256"
        }
      ],
      "name": "increaseAllowance",
      "outputs": [
        {
          "internalType": "bool",
          "name": "",
          "type": "bool"
        }
      ],
      "stateMutability": "nonpayable",
      "type": "function"
    },
    {
      "inputs": [],
      "name": "name",
      "outputs": [
        {
          "internalType": "string",
          "name": "",
          "type": "string"
        }
      ],
      "stateMutability": "view",
      "type": "function"
    },
    {
      "inputs": [
        {
          "internalType": "address",
          "name": "owner",
          "type": "address"
        }
      ],
      "name": "nonces",
      "outputs": [
        {
          "internalType": "uint256",
          "name": "",
          "type": "uint256"
        }
      ],
      "stateMutability": "view",
      "type": "function"
    },
    {
      "inputs": [
        {
          "internalType": "address",
          "name": "account",
          "type": "address"
        }
      ],
      "name": "numCheckpoints",
      "outputs": [
        {
          "internalType": "uint32",
          "name": "",
          "type": "uint32"
        }
      ],
      "stateMutability": "view",
      "type": "function"
    },
    {
      "inputs": [],
      "name": "paused",
      "outputs": [
        {
          "internalType": "bool",
          "name": "",
          "type": "bool"
        }
      ],
      "stateMutability": "view",
      "type": "function"
    },
    {
      "inputs": [
        {
          "internalType": "address",
          "name": "owner",
          "type": "address"
        },
        {
          "internalType": "address",
          "name": "spender",
          "type": "address"
        },
        {
          "internalType": "uint256",
          "name": "value",
          "type": "uint256"
        },
        {
          "internalType": "uint256",
          "name": "deadline",
          "type": "uint256"
        },
        {
          "internalType": "uint8",
          "name": "v",
          "type": "uint8"
        },
        {
          "internalType": "bytes32",
          "name": "r",
          "type": "bytes32"
        },
        {
          "internalType": "bytes32",
          "name": "s",
          "type": "bytes32"
        }
      ],
      "name": "permit",
      "outputs": [],
      "stateMutability": "nonpayable",
      "type": "function"
    },
    {
      "inputs": [
        {
          "internalType": "bytes32",
          "name": "role",
          "type": "bytes32"
        },
        {
          "internalType": "address",
          "name": "account",
          "type": "address"
        }
      ],
      "name": "renounceRole",
      "outputs": [],
      "stateMutability": "nonpayable",
      "type": "function"
    },
    {
      "inputs": [
        {
          "internalType": "bytes32",
          "name": "role",
          "type": "bytes32"
        },
        {
          "internalType": "address",
          "name": "account",
          "type": "address"
        }
      ],
      "name": "revokeRole",
      "outputs": [],
      "stateMutability": "nonpayable",
      "type": "function"
    },
    {
      "inputs": [
        {
          "internalType": "bytes4",
          "name": "interfaceId",
          "type": "bytes4"
        }
      ],
      "name": "supportsInterface",
      "outputs": [
        {
          "internalType": "bool",
          "name": "",
          "type": "bool"
        }
      ],
      "stateMutability": "view",
      "type": "function"
    },
    {
      "inputs": [],
      "name": "symbol",
      "outputs": [
        {
          "internalType": "string",
          "name": "",
          "type": "string"
        }
      ],
      "stateMutability": "view",
      "type": "function"
    },
    {
      "inputs": [],
      "name": "totalSupply",
      "outputs": [
        {
          "internalType": "uint256",
          "name": "",
          "type": "uint256"
        }
      ],
      "stateMutability": "view",
      "type": "function"
    },
    {
      "inputs": [
        {
          "internalType": "uint256",
          "name": "snapshotId",
          "type": "uint256"
        }
      ],
      "name": "totalSupplyAt",
      "outputs": [
        {
          "internalType": "uint256",
          "name": "",
          "type": "uint256"
        }
      ],
      "stateMutability": "view",
      "type": "function"
    },
    {
      "inputs": [
        {
          "internalType": "address",
          "name": "recipient",
          "type": "address"
        },
        {
          "internalType": "uint256",
          "name": "amount",
          "type": "uint256"
        }
      ],
      "name": "transfer",
      "outputs": [
        {
          "internalType": "bool",
          "name": "",
          "type": "bool"
        }
      ],
      "stateMutability": "nonpayable",
      "type": "function"
    },
    {
      "inputs": [
        {
          "internalType": "address",
          "name": "sender",
          "type": "address"
        },
        {
          "internalType": "address",
          "name": "recipient",
          "type": "address"
        },
        {
          "internalType": "uint256",
          "name": "amount",
          "type": "uint256"
        }
      ],
      "name": "transferFrom",
      "outputs": [
        {
          "internalType": "bool",
          "name": "",
          "type": "bool"
        }
      ],
      "stateMutability": "nonpayable",
      "type": "function"
    },
    {
      "inputs": [],
      "name": "snapshot",
      "outputs": [],
      "stateMutability": "nonpayable",
      "type": "function"
    },
    {
      "inputs": [],
      "name": "pause",
      "outputs": [],
      "stateMutability": "nonpayable",
      "type": "function"
    },
    {
      "inputs": [],
      "name": "unpause",
      "outputs": [],
      "stateMutability": "nonpayable",
      "type": "function"
    },
    {
      "inputs": [
        {
          "internalType": "address",
          "name": "to",
          "type": "address"
        },
        {
          "internalType": "uint256",
          "name": "amount",
          "type": "uint256"
        }
      ],
      "name": "mint",
      "outputs": [],
      "stateMutability": "nonpayable",
      "type": "function"
    }
  ],
  "bytecode": "0x6101406040527f6e71edae12b1b97f4d1f60370fef10105fa2faae0126114a169c64845d6126c9610120523480156200003757600080fd5b506040518060400160405280600781526020016626bcaa37b5b2b760c91b81525080604051806040016040528060018152602001603160f81b8152506040518060400160405280600781526020016626bcaa37b5b2b760c91b815250604051806040016040528060038152602001624d544b60e81b8152508160039080519060200190620000c7929190620002bf565b508051620000dd906004906020840190620002bf565b5050600a805460ff1916905550815160209283012081519183019190912060c082815260e08290524660a0818152604080517f8b73c3c69bb8fe3d512ecc4cf759cc79239f7b179b0ffacaa9a75d522b39400f8189018190528183019790975260608101959095526080808601939093523085830152805180860390920182529390920190925280519301929092209091526101005250620001816000336200020b565b620001ad7f5fdbd35e8da83ee755d5e62a539e5ed7f47126abede0b8b10f9ea43dc6eed07f336200020b565b620001d97f65d7a28e3265b37a6474929f336521b332c1681b933f6cb9f3376673440d862a336200020b565b620002057f9f2df0fed2c77648de5860a4cc508cd0818c85b8b8a1ab4ceeef8d981c8956a6336200020b565b620003a2565b6200021782826200021b565b5050565b60008281526009602090815260408083206001600160a01b038516845290915290205460ff16620002175760008281526009602090815260408083206001600160a01b03851684529091529020805460ff191660011790556200027b3390565b6001600160a01b0316816001600160a01b0316837f2f8788117e7eff1d82e926ec794901d17c78024a50270940304540a733656f0d60405160405180910390a45050565b828054620002cd9062000365565b90600052602060002090601f016020900481019282620002f157600085556200033c565b82601f106200030c57805160ff19168380011785556200033c565b828001600101855582156200033c579182015b828111156200033c5782518255916020019190600101906200031f565b506200034a9291506200034e565b5090565b5b808211156200034a57600081556001016200034f565b600181811c908216806200037a57607f821691505b602082108114156200039c57634e487b7160e01b600052602260045260246000fd5b50919050565b60805160a05160c05160e0516101005161012051612b6f620003f26000396000610ea6015260006114b701526000611506015260006114e1015260006114650152600061148e0152612b6f6000f3fe608060405234801561001057600080fd5b50600436106102535760003560e01c80637028e2cd116101465780639ab24eb0116100c3578063d505accf11610087578063d505accf1461053b578063d53913931461054e578063d547741f14610575578063dd62ed3e14610588578063e63ab1e9146105c1578063f1127ed8146105e857600080fd5b80639ab24eb0146104e7578063a217fddf146104fa578063a457c2d714610502578063a9059cbb14610515578063c3cda5201461052857600080fd5b80638e539e8c1161010a5780638e539e8c1461049e57806391d14854146104b157806395d89b41146104c45780639711715a146104cc578063981b24d0146104d457600080fd5b80637028e2cd1461042057806370a082311461044757806379cc6790146104705780637ecebe00146104835780638456cb591461049657600080fd5b806339509351116101d45780634ee2cd7e116101985780634ee2cd7e14610383578063587cde1e146103965780635c19a95c146103da5780635c975abb146103ed5780636fcfff45146103f857600080fd5b8063395093511461032f5780633a46b1a8146103425780633f4ba83a1461035557806340c10f191461035d57806342966c681461037057600080fd5b8063248a9ca31161021b578063248a9ca3146102cd5780632f2ff15d146102f0578063313ce567146103055780633644e5151461031457806336568abe1461031c57600080fd5b806301ffc9a71461025857806306fdde0314610280578063095ea7b31461029557806318160ddd146102a857806323b872dd146102ba575b600080fd5b61026b61026636600461294f565b610625565b60405190151581526020015b60405180910390f35b61028861065c565b60405161027791906129ec565b61026b6102a3366004612857565b6106ee565b6002545b604051908152602001610277565b61026b6102c83660046127b3565b610704565b6102ac6102db366004612915565b60009081526009602052604090206001015490565b6103036102fe36600461292d565b6107b3565b005b60405160128152602001610277565b6102ac6107de565b61030361032a36600461292d565b6107ed565b61026b61033d366004612857565b61086b565b6102ac610350366004612857565b6108a7565b610303610921565b61030361036b366004612857565b610957565b61030361037e366004612915565b61098c565b6102ac610391366004612857565b610996565b6103c26103a4366004612767565b6001600160a01b039081166000908152600c60205260409020541690565b6040516001600160a01b039091168152602001610277565b6103036103e8366004612767565b6109ef565b600a5460ff1661026b565b61040b610406366004612767565b6109f9565b60405163ffffffff9091168152602001610277565b6102ac7f5fdbd35e8da83ee755d5e62a539e5ed7f47126abede0b8b10f9ea43dc6eed07f81565b6102ac610455366004612767565b6001600160a01b031660009081526020819052604090205490565b61030361047e366004612857565b610a1b565b6102ac610491366004612767565b610a9c565b610303610aba565b6102ac6104ac366004612915565b610aed565b61026b6104bf36600461292d565b610b49565b610288610b74565b610303610b83565b6102ac6104e2366004612915565b610bb6565b6102ac6104f5366004612767565b610be1565b6102ac600081565b61026b610510366004612857565b610c76565b61026b610523366004612857565b610d0f565b610303610536366004612880565b610d1c565b6103036105493660046127ee565b610e52565b6102ac7f9f2df0fed2c77648de5860a4cc508cd0818c85b8b8a1ab4ceeef8d981c8956a681565b61030361058336600461292d565b610fb6565b6102ac610596366004612781565b6001600160a01b03918216600090815260016020908152604080832093909416825291909152205490565b6102ac7f65d7a28e3265b37a6474929f336521b332c1681b933f6cb9f3376673440d862a81565b6105fb6105f63660046128d7565b610fdc565b60408051825163ffffffff1681526020928301516001600160e01b03169281019290925201610277565b60006001600160e01b03198216637965db0b60e01b148061065657506301ffc9a760e01b6001600160e01b03198316145b92915050565b60606003805461066b90612ac4565b80601f016020809104026020016040519081016040528092919081815260200182805461069790612ac4565b80156106e45780601f106106b9576101008083540402835291602001916106e4565b820191906000526020600020905b8154815290600101906020018083116106c757829003601f168201915b5050505050905090565b60006106fb33848461106e565b50600192915050565b6000610711848484611192565b6001600160a01b03841660009081526001602090815260408083203384529091529020548281101561079b5760405162461bcd60e51b815260206004820152602860248201527f45524332303a207472616e7366657220616d6f756e74206578636565647320616044820152676c6c6f77616e636560c01b60648201526084015b60405180910390fd5b6107a8853385840361106e565b506001949350505050565b6000828152600960205260409020600101546107cf8133611377565b6107d983836113db565b505050565b60006107e8611461565b905090565b6001600160a01b038116331461085d5760405162461bcd60e51b815260206004820152602f60248201527f416363657373436f6e74726f6c3a2063616e206f6e6c792072656e6f756e636560448201526e103937b632b9903337b91039b2b63360891b6064820152608401610792565b6108678282611554565b5050565b3360008181526001602090815260408083206001600160a01b038716845290915281205490916106fb9185906108a2908690612a1f565b61106e565b60004382106108f85760405162461bcd60e51b815260206004820152601f60248201527f4552433230566f7465733a20626c6f636b206e6f7420796574206d696e6564006044820152606401610792565b6001600160a01b0383166000908152600d6020526040902061091a90836115bb565b9392505050565b7f65d7a28e3265b37a6474929f336521b332c1681b933f6cb9f3376673440d862a61094c8133611377565b610954611694565b50565b7f9f2df0fed2c77648de5860a4cc508cd0818c85b8b8a1ab4ceeef8d981c8956a66109828133611377565b6107d98383611727565b6109543382611731565b6001600160a01b0382166000908152600560205260408120819081906109bd90859061173b565b91509150816109e4576001600160a01b0385166000908152602081905260409020546109e6565b805b95945050505050565b6109543382611840565b6001600160a01b0381166000908152600d6020526040812054610656906118b9565b6000610a278333610596565b905081811015610a855760405162461bcd60e51b8152602060048201526024808201527f45524332303a206275726e20616d6f756e74206578636565647320616c6c6f77604482015263616e636560e01b6064820152608401610792565b610a92833384840361106e565b6107d98383611731565b6001600160a01b0381166000908152600b6020526040812054610656565b7f65d7a28e3265b37a6474929f336521b332c1681b933f6cb9f3376673440d862a610ae58133611377565b610954611922565b6000438210610b3e5760405162461bcd60e51b815260206004820152601f60248201527f4552433230566f7465733a20626c6f636b206e6f7420796574206d696e6564006044820152606401610792565b610656600e836115bb565b60009182526009602090815260408084206001600160a01b0393909316845291905290205460ff1690565b60606004805461066b90612ac4565b7f5fdbd35e8da83ee755d5e62a539e5ed7f47126abede0b8b10f9ea43dc6eed07f610bae8133611377565b61086761199d565b6000806000610bc684600661173b565b9150915081610bd757600254610bd9565b805b949350505050565b6001600160a01b0381166000908152600d60205260408120548015610c63576001600160a01b0383166000908152600d60205260409020610c23600183612a6a565b81548110610c4157634e487b7160e01b600052603260045260246000fd5b60009182526020909120015464010000000090046001600160e01b0316610c66565b60005b6001600160e01b03169392505050565b3360009081526001602090815260408083206001600160a01b038616845290915281205482811015610cf85760405162461bcd60e51b815260206004820152602560248201527f45524332303a2064656372656173656420616c6c6f77616e63652062656c6f77604482015264207a65726f60d81b6064820152608401610792565b610d05338585840361106e565b5060019392505050565b60006106fb338484611192565b83421115610d6c5760405162461bcd60e51b815260206004820152601d60248201527f4552433230566f7465733a207369676e617475726520657870697265640000006044820152606401610792565b604080517fe48329057bfd03d55e49b547132e39cffd9c1820ad7b9d4c5307691425d15adf60208201526001600160a01b038816918101919091526060810186905260808101859052600090610de690610dde9060a001604051602081830303815290604052805190602001206119f7565b858585611a45565b9050610df181611be5565b8614610e3f5760405162461bcd60e51b815260206004820152601960248201527f4552433230566f7465733a20696e76616c6964206e6f6e6365000000000000006044820152606401610792565b610e498188611840565b50505050505050565b83421115610ea25760405162461bcd60e51b815260206004820152601d60248201527f45524332305065726d69743a206578706972656420646561646c696e650000006044820152606401610792565b60007f0000000000000000000000000000000000000000000000000000000000000000888888610ed18c611be5565b6040805160208101969096526001600160a01b0394851690860152929091166060840152608083015260a082015260c0810186905260e0016040516020818303038152906040528051906020012090506000610f2c826119f7565b90506000610f3c82878787611a45565b9050896001600160a01b0316816001600160a01b031614610f9f5760405162461bcd60e51b815260206004820152601e60248201527f45524332305065726d69743a20696e76616c6964207369676e617475726500006044820152606401610792565b610faa8a8a8a61106e565b50505050505050505050565b600082815260096020526040902060010154610fd28133611377565b6107d98383611554565b60408051808201909152600080825260208201526001600160a01b0383166000908152600d60205260409020805463ffffffff841690811061102e57634e487b7160e01b600052603260045260246000fd5b60009182526020918290206040805180820190915291015463ffffffff8116825264010000000090046001600160e01b0316918101919091529392505050565b6001600160a01b0383166110d05760405162461bcd60e51b8152602060048201526024808201527f45524332303a20617070726f76652066726f6d20746865207a65726f206164646044820152637265737360e01b6064820152608401610792565b6001600160a01b0382166111315760405162461bcd60e51b815260206004820152602260248201527f45524332303a20617070726f766520746f20746865207a65726f206164647265604482015261737360f01b6064820152608401610792565b6001600160a01b0383811660008181526001602090815260408083209487168084529482529182902085905590518481527f8c5be1e5ebec7d5bd14f71427d1e84f3dd0314c0f7b2291e5b200ac8c7c3b925910160405180910390a3505050565b6001600160a01b0383166111f65760405162461bcd60e51b815260206004820152602560248201527f45524332303a207472616e736665722066726f6d20746865207a65726f206164604482015264647265737360d81b6064820152608401610792565b6001600160a01b0382166112585760405162461bcd60e51b815260206004820152602360248201527f45524332303a207472616e7366657220746f20746865207a65726f206164647260448201526265737360e81b6064820152608401610792565b611263838383611c0d565b6001600160a01b038316600090815260208190526040902054818110156112db5760405162461bcd60e51b815260206004820152602660248201527f45524332303a207472616e7366657220616d6f756e7420657863656564732062604482015265616c616e636560d01b6064820152608401610792565b6001600160a01b03808516600090815260208190526040808220858503905591851681529081208054849290611312908490612a1f565b92505081905550826001600160a01b0316846001600160a01b03167fddf252ad1be2c89b69c2b068fc378daa952ba7f163c4a11628f55a4df523b3ef8460405161135e91815260200190565b60405180910390a3611371848484611c5e565b50505050565b6113818282610b49565b61086757611399816001600160a01b03166014611c69565b6113a4836020611c69565b6040516020016113b5929190612977565b60408051601f198184030181529082905262461bcd60e51b8252610792916004016129ec565b6113e58282610b49565b6108675760008281526009602090815260408083206001600160a01b03851684529091529020805460ff1916600117905561141d3390565b6001600160a01b0316816001600160a01b0316837f2f8788117e7eff1d82e926ec794901d17c78024a50270940304540a733656f0d60405160405180910390a45050565b60007f00000000000000000000000000000000000000000000000000000000000000004614156114b057507f000000000000000000000000000000000000000000000000000000000000000090565b50604080517f00000000000000000000000000000000000000000000000000000000000000006020808301919091527f0000000000000000000000000000000000000000000000000000000000000000828401527f000000000000000000000000000000000000000000000000000000000000000060608301524660808301523060a0808401919091528351808403909101815260c0909201909252805191012090565b61155e8282610b49565b156108675760008281526009602090815260408083206001600160a01b0385168085529252808320805460ff1916905551339285917ff6391f5c32d9c69d2a47ea670b442974b53935d1edc7fd64eb21e047a839171b9190a45050565b8154600090815b8181101561162d5760006115d68284611e4b565b9050848682815481106115f957634e487b7160e01b600052603260045260246000fd5b60009182526020909120015463ffffffff16111561161957809250611627565b611624816001612a1f565b91505b506115c2565b811561167f578461163f600184612a6a565b8154811061165d57634e487b7160e01b600052603260045260246000fd5b60009182526020909120015464010000000090046001600160e01b0316611682565b60005b6001600160e01b031695945050505050565b600a5460ff166116dd5760405162461bcd60e51b815260206004820152601460248201527314185d5cd8589b194e881b9bdd081c185d5cd95960621b6044820152606401610792565b600a805460ff191690557f5db9ee0a495bf2e6ff9c91a7834c1ba4fdd244a5e8aa4e537bd38aeae4b073aa335b6040516001600160a01b03909116815260200160405180910390a1565b6108678282611ea2565b6108678282611f2c565b600080600084116117875760405162461bcd60e51b815260206004820152601660248201527504552433230536e617073686f743a20696420697320360541b6044820152606401610792565b61178f611f44565b8411156117de5760405162461bcd60e51b815260206004820152601d60248201527f4552433230536e617073686f743a206e6f6e6578697374656e742069640000006044820152606401610792565b60006117ea8486611f4f565b8454909150811415611803576000809250925050611839565b600184600101828154811061182857634e487b7160e01b600052603260045260246000fd5b906000526020600020015492509250505b9250929050565b6001600160a01b038281166000818152600c60208181526040808420805485845282862054949093528787166001600160a01b03198416811790915590519190951694919391928592917f3134e8a2e6d97e929a7e54011ea5485d7d196dd5f0ba4d4ef95803e8e3fc257f9190a461137182848361202e565b600063ffffffff82111561191e5760405162461bcd60e51b815260206004820152602660248201527f53616665436173743a2076616c756520646f65736e27742066697420696e203360448201526532206269747360d01b6064820152608401610792565b5090565b600a5460ff16156119685760405162461bcd60e51b815260206004820152601060248201526f14185d5cd8589b194e881c185d5cd95960821b6044820152606401610792565b600a805460ff191660011790557f62e78cea01bee320cd4e420270b5ea74000d11b0c9f74754ebdbfc544b05a25861170a3390565b60006119ad600880546001019055565b60006119b7611f44565b90507f8030e83b04d87bef53480e26263266d6ca66863aa8506aca6f2559d18aa1cb67816040516119ea91815260200190565b60405180910390a1919050565b6000610656611a04611461565b8360405161190160f01b6020820152602281018390526042810182905260009060620160405160208183030381529060405280519060200120905092915050565b60007f7fffffffffffffffffffffffffffffff5d576e7357a4501ddfe92f46681b20a0821115611ac25760405162461bcd60e51b815260206004820152602260248201527f45434453413a20696e76616c6964207369676e6174757265202773272076616c604482015261756560f01b6064820152608401610792565b8360ff16601b1480611ad757508360ff16601c145b611b2e5760405162461bcd60e51b815260206004820152602260248201527f45434453413a20696e76616c6964207369676e6174757265202776272076616c604482015261756560f01b6064820152608401610792565b6040805160008082526020820180845288905260ff871692820192909252606081018590526080810184905260019060a0016020604051602081039080840390855afa158015611b82573d6000803e3d6000fd5b5050604051601f1901519150506001600160a01b0381166109e65760405162461bcd60e51b815260206004820152601860248201527f45434453413a20696e76616c6964207369676e617475726500000000000000006044820152606401610792565b6001600160a01b0381166000908152600b602052604090208054600181018255905b50919050565b600a5460ff1615611c535760405162461bcd60e51b815260206004820152601060248201526f14185d5cd8589b194e881c185d5cd95960821b6044820152606401610792565b6107d983838361216b565b6107d98383836121b3565b60606000611c78836002612a4b565b611c83906002612a1f565b67ffffffffffffffff811115611ca957634e487b7160e01b600052604160045260246000fd5b6040519080825280601f01601f191660200182016040528015611cd3576020820181803683370190505b509050600360fc1b81600081518110611cfc57634e487b7160e01b600052603260045260246000fd5b60200101906001600160f81b031916908160001a905350600f60fb1b81600181518110611d3957634e487b7160e01b600052603260045260246000fd5b60200101906001600160f81b031916908160001a9053506000611d5d846002612a4b565b611d68906001612a1f565b90505b6001811115611dfc576f181899199a1a9b1b9c1cb0b131b232b360811b85600f1660108110611daa57634e487b7160e01b600052603260045260246000fd5b1a60f81b828281518110611dce57634e487b7160e01b600052603260045260246000fd5b60200101906001600160f81b031916908160001a90535060049490941c93611df581612aad565b9050611d6b565b50831561091a5760405162461bcd60e51b815260206004820181905260248201527f537472696e67733a20686578206c656e67746820696e73756666696369656e746044820152606401610792565b60006002611e598184612af9565b611e64600286612af9565b611e6e9190612a1f565b611e789190612a37565b611e83600284612a37565b611e8e600286612a37565b611e989190612a1f565b61091a9190612a1f565b611eac82826121e5565b6002546001600160e01b031015611f1e5760405162461bcd60e51b815260206004820152603060248201527f4552433230566f7465733a20746f74616c20737570706c79207269736b73206f60448201526f766572666c6f77696e6720766f74657360801b6064820152608401610792565b611371600e6122d8836122e4565b611f368282612487565b611371600e6125e8836122e4565b60006107e860085490565b8154600090611f6057506000610656565b82546000905b80821015611fca576000611f7a8383611e4b565b905084868281548110611f9d57634e487b7160e01b600052603260045260246000fd5b90600052602060002001541115611fb657809150611fc4565b611fc1816001612a1f565b92505b50611f66565b60008211801561200d57508385611fe2600185612a6a565b8154811061200057634e487b7160e01b600052603260045260246000fd5b9060005260206000200154145b156120265761201d600183612a6a565b92505050610656565b509050610656565b816001600160a01b0316836001600160a01b0316141580156120505750600081115b156107d9576001600160a01b038316156120de576001600160a01b0383166000908152600d60205260408120819061208b906125e8856122e4565b91509150846001600160a01b03167fdec2bacdd2f05b59de34da9b523dff8be42e5e38e818c82fdb0bae774387a72483836040516120d3929190918252602082015260400190565b60405180910390a250505b6001600160a01b038216156107d9576001600160a01b0382166000908152600d602052604081208190612114906122d8856122e4565b91509150836001600160a01b03167fdec2bacdd2f05b59de34da9b523dff8be42e5e38e818c82fdb0bae774387a724838360405161215c929190918252602082015260400190565b60405180910390a25050505050565b6001600160a01b03831661218a57612182826125f4565b6107d9612626565b6001600160a01b0382166121a157612182836125f4565b6121aa836125f4565b6107d9826125f4565b6001600160a01b038381166000908152600c60205260408082205485841683529120546107d99291821691168361202e565b6001600160a01b03821661223b5760405162461bcd60e51b815260206004820152601f60248201527f45524332303a206d696e7420746f20746865207a65726f2061646472657373006044820152606401610792565b61224760008383611c0d565b80600260008282546122599190612a1f565b90915550506001600160a01b03821660009081526020819052604081208054839290612286908490612a1f565b90915550506040518181526001600160a01b038316906000907fddf252ad1be2c89b69c2b068fc378daa952ba7f163c4a11628f55a4df523b3ef9060200160405180910390a361086760008383611c5e565b600061091a8284612a1f565b82546000908190801561233d57856122fd600183612a6a565b8154811061231b57634e487b7160e01b600052603260045260246000fd5b60009182526020909120015464010000000090046001600160e01b0316612340565b60005b6001600160e01b0316925061235983858763ffffffff16565b91506000811180156123a557504386612373600184612a6a565b8154811061239157634e487b7160e01b600052603260045260246000fd5b60009182526020909120015463ffffffff16145b15612413576123b382612636565b866123bf600184612a6a565b815481106123dd57634e487b7160e01b600052603260045260246000fd5b9060005260206000200160000160046101000a8154816001600160e01b0302191690836001600160e01b0316021790555061247e565b856040518060400160405280612428436118b9565b63ffffffff16815260200161243c85612636565b6001600160e01b0390811690915282546001810184556000938452602093849020835194909301519091166401000000000263ffffffff909316929092179101555b50935093915050565b6001600160a01b0382166124e75760405162461bcd60e51b815260206004820152602160248201527f45524332303a206275726e2066726f6d20746865207a65726f206164647265736044820152607360f81b6064820152608401610792565b6124f382600083611c0d565b6001600160a01b038216600090815260208190526040902054818110156125675760405162461bcd60e51b815260206004820152602260248201527f45524332303a206275726e20616d6f756e7420657863656564732062616c616e604482015261636560f01b6064820152608401610792565b6001600160a01b0383166000908152602081905260408120838303905560028054849290612596908490612a6a565b90915550506040518281526000906001600160a01b038516907fddf252ad1be2c89b69c2b068fc378daa952ba7f163c4a11628f55a4df523b3ef9060200160405180910390a36107d983600084611c5e565b600061091a8284612a6a565b6001600160a01b03811660009081526005602090815260408083209183905290912054610954919061269f565b61269f565b612634600661262160025490565b565b60006001600160e01b0382111561191e5760405162461bcd60e51b815260206004820152602760248201527f53616665436173743a2076616c756520646f65736e27742066697420696e20326044820152663234206269747360c81b6064820152608401610792565b60006126a9611f44565b9050806126b5846126e9565b10156107d9578254600180820185556000858152602080822090930193909355938401805494850181558252902090910155565b80546000906126fa57506000919050565b8154829061270a90600190612a6a565b8154811061272857634e487b7160e01b600052603260045260246000fd5b90600052602060002001549050919050565b919050565b80356001600160a01b038116811461273a57600080fd5b803560ff8116811461273a57600080fd5b600060208284031215612778578081fd5b61091a8261273f565b60008060408385031215612793578081fd5b61279c8361273f565b91506127aa6020840161273f565b90509250929050565b6000806000606084860312156127c7578081fd5b6127d08461273f565b92506127de6020850161273f565b9150604084013590509250925092565b600080600080600080600060e0888a031215612808578283fd5b6128118861273f565b965061281f6020890161273f565b9550604088013594506060880135935061283b60808901612756565b925060a0880135915060c0880135905092959891949750929550565b60008060408385031215612869578182fd5b6128728361273f565b946020939093013593505050565b60008060008060008060c08789031215612898578182fd5b6128a18761273f565b955060208701359450604087013593506128bd60608801612756565b92506080870135915060a087013590509295509295509295565b600080604083850312156128e9578182fd5b6128f28361273f565b9150602083013563ffffffff8116811461290a578182fd5b809150509250929050565b600060208284031215612926578081fd5b5035919050565b6000806040838503121561293f578182fd5b823591506127aa6020840161273f565b600060208284031215612960578081fd5b81356001600160e01b03198116811461091a578182fd5b7f416363657373436f6e74726f6c3a206163636f756e74200000000000000000008152600083516129af816017850160208801612a81565b7001034b99036b4b9b9b4b733903937b6329607d1b60179184019182015283516129e0816028840160208801612a81565b01602801949350505050565b6020815260008251806020840152612a0b816040850160208701612a81565b601f01601f19169190910160400192915050565b60008219821115612a3257612a32612b0d565b500190565b600082612a4657612a46612b23565b500490565b6000816000190483118215151615612a6557612a65612b0d565b500290565b600082821015612a7c57612a7c612b0d565b500390565b60005b83811015612a9c578181015183820152602001612a84565b838111156113715750506000910152565b600081612abc57612abc612b0d565b506000190190565b600181811c90821680612ad857607f821691505b60208210811415611c0757634e487b7160e01b600052602260045260246000fd5b600082612b0857612b08612b23565b500690565b634e487b7160e01b600052601160045260246000fd5b634e487b7160e01b600052601260045260246000fdfea264697066735822122039481050257c894d6955cf3dd1a0f7f99870b4d5f0200c569f291acc1414269b64736f6c63430008040033",
  "immutableReferences": {
    "2372": [
      {
        "length": 32,
        "start": 3750
      }
    ],
    "3121": [
      {
        "length": 32,
        "start": 5262
      }
    ],
    "3123": [
      {
        "length": 32,
        "start": 5221
      }
    ],
    "3125": [
      {
        "length": 32,
        "start": 5345
      }
    ],
    "3127": [
      {
        "length": 32,
        "start": 5382
      }
    ],
    "3129": [
      {
        "length": 32,
        "start": 5303
      }
    ]
  },
  "source": "// SPDX-License-Identifier: MIT\npragma solidity ^0.8.4;\n\nimport \"@openzeppelin/contracts/token/ERC20/ERC20.sol\";\nimport \"@openzeppelin/contracts/token/ERC20/extensions/ERC20Burnable.sol\";\nimport \"@openzeppelin/contracts/token/ERC20/extensions/ERC20Snapshot.sol\";\nimport \"@openzeppelin/contracts/access/AccessControl.sol\";\nimport \"@openzeppelin/contracts/security/Pausable.sol\";\nimport \"@openzeppelin/contracts/token/ERC20/extensions/draft-ERC20Permit.sol\";\nimport \"@openzeppelin/contracts/token/ERC20/extensions/ERC20Votes.sol\";\n\ncontract MyToken is ERC20, ERC20Burnable, ERC20Snapshot, AccessControl, Pausable, ERC20Permit, ERC20Votes {\n    bytes32 public constant SNAPSHOT_ROLE = keccak256(\"SNAPSHOT_ROLE\");\n    bytes32 public constant PAUSER_ROLE = keccak256(\"PAUSER_ROLE\");\n    bytes32 public constant MINTER_ROLE = keccak256(\"MINTER_ROLE\");\n\n    constructor() ERC20(\"MyToken\", \"MTK\") ERC20Permit(\"MyToken\") {\n        _setupRole(DEFAULT_ADMIN_ROLE, msg.sender);\n        _setupRole(SNAPSHOT_ROLE, msg.sender);\n        _setupRole(PAUSER_ROLE, msg.sender);\n        _setupRole(MINTER_ROLE, msg.sender);\n    }\n\n    function snapshot() public onlyRole(SNAPSHOT_ROLE) {\n        _snapshot();\n    }\n\n    function pause() public onlyRole(PAUSER_ROLE) {\n        _pause();\n    }\n\n    function unpause() public onlyRole(PAUSER_ROLE) {\n        _unpause();\n    }\n\n    function mint(address to, uint256 amount) public onlyRole(MINTER_ROLE) {\n        _mint(to, amount);\n    }\n\n    function _beforeTokenTransfer(address from, address to, uint256 amount)\n        internal\n        whenNotPaused\n        override(ERC20, ERC20Snapshot)\n    {\n        super._beforeTokenTransfer(from, to, amount);\n    }\n\n    function _afterTokenTransfer(address from, address to, uint256 amount)\n        internal\n        override(ERC20, ERC20Votes)\n    {\n        super._afterTokenTransfer(from, to, amount);\n    }\n\n    function _mint(address to, uint256 amount)\n        internal\n        override(ERC20, ERC20Votes)\n    {\n        super._mint(to, amount);\n    }\n\n    function _burn(address account, uint256 amount)\n        internal\n        override(ERC20, ERC20Votes)\n    {\n        super._burn(account, amount);\n    }\n}\n",
  "sourcePath": "/Users/hongjan/Documents/Coin-experiment/contracts/Token.sol",
  "compiler": {
    "name": "solc",
    "version": "0.8.4+commit.c7e474f2.Emscripten.clang"
  },
  "schemaVersion": "3.4.1",
  "updatedAt": "2021-08-18T14:09:33.187Z",
  "devdoc": {
    "kind": "dev",
    "methods": {
      "DOMAIN_SEPARATOR()": {
        "details": "See {IERC20Permit-DOMAIN_SEPARATOR}."
      },
      "allowance(address,address)": {
        "details": "See {IERC20-allowance}."
      },
      "approve(address,uint256)": {
        "details": "See {IERC20-approve}. Requirements: - `spender` cannot be the zero address."
      },
      "balanceOf(address)": {
        "details": "See {IERC20-balanceOf}."
      },
      "balanceOfAt(address,uint256)": {
        "details": "Retrieves the balance of `account` at the time `snapshotId` was created."
      },
      "burn(uint256)": {
        "details": "Destroys `amount` tokens from the caller. See {ERC20-_burn}."
      },
      "burnFrom(address,uint256)": {
        "details": "Destroys `amount` tokens from `account`, deducting from the caller's allowance. See {ERC20-_burn} and {ERC20-allowance}. Requirements: - the caller must have allowance for ``accounts``'s tokens of at least `amount`."
      },
      "checkpoints(address,uint32)": {
        "details": "Get the `pos`-th checkpoint for `account`."
      },
      "decimals()": {
        "details": "Returns the number of decimals used to get its user representation. For example, if `decimals` equals `2`, a balance of `505` tokens should be displayed to a user as `5,05` (`505 / 10 ** 2`). Tokens usually opt for a value of 18, imitating the relationship between Ether and Wei. This is the value {ERC20} uses, unless this function is overridden; NOTE: This information is only used for _display_ purposes: it in no way affects any of the arithmetic of the contract, including {IERC20-balanceOf} and {IERC20-transfer}."
      },
      "decreaseAllowance(address,uint256)": {
        "details": "Atomically decreases the allowance granted to `spender` by the caller. This is an alternative to {approve} that can be used as a mitigation for problems described in {IERC20-approve}. Emits an {Approval} event indicating the updated allowance. Requirements: - `spender` cannot be the zero address. - `spender` must have allowance for the caller of at least `subtractedValue`."
      },
      "delegate(address)": {
        "details": "Delegate votes from the sender to `delegatee`."
      },
      "delegateBySig(address,uint256,uint256,uint8,bytes32,bytes32)": {
        "details": "Delegates votes from signer to `delegatee`"
      },
      "delegates(address)": {
        "details": "Get the address `account` is currently delegating to."
      },
      "getPastTotalSupply(uint256)": {
        "details": "Retrieve the `totalSupply` at the end of `blockNumber`. Note, this value is the sum of all balances. It is but NOT the sum of all the delegated votes! Requirements: - `blockNumber` must have been already mined"
      },
      "getPastVotes(address,uint256)": {
        "details": "Retrieve the number of votes for `account` at the end of `blockNumber`. Requirements: - `blockNumber` must have been already mined"
      },
      "getRoleAdmin(bytes32)": {
        "details": "Returns the admin role that controls `role`. See {grantRole} and {revokeRole}. To change a role's admin, use {_setRoleAdmin}."
      },
      "getVotes(address)": {
        "details": "Gets the current votes balance for `account`"
      },
      "grantRole(bytes32,address)": {
        "details": "Grants `role` to `account`. If `account` had not been already granted `role`, emits a {RoleGranted} event. Requirements: - the caller must have ``role``'s admin role."
      },
      "hasRole(bytes32,address)": {
        "details": "Returns `true` if `account` has been granted `role`."
      },
      "increaseAllowance(address,uint256)": {
        "details": "Atomically increases the allowance granted to `spender` by the caller. This is an alternative to {approve} that can be used as a mitigation for problems described in {IERC20-approve}. Emits an {Approval} event indicating the updated allowance. Requirements: - `spender` cannot be the zero address."
      },
      "name()": {
        "details": "Returns the name of the token."
      },
      "nonces(address)": {
        "details": "See {IERC20Permit-nonces}."
      },
      "numCheckpoints(address)": {
        "details": "Get number of checkpoints for `account`."
      },
      "paused()": {
        "details": "Returns true if the contract is paused, and false otherwise."
      },
      "permit(address,address,uint256,uint256,uint8,bytes32,bytes32)": {
        "details": "See {IERC20Permit-permit}."
      },
      "renounceRole(bytes32,address)": {
        "details": "Revokes `role` from the calling account. Roles are often managed via {grantRole} and {revokeRole}: this function's purpose is to provide a mechanism for accounts to lose their privileges if they are compromised (such as when a trusted device is misplaced). If the calling account had been granted `role`, emits a {RoleRevoked} event. Requirements: - the caller must be `account`."
      },
      "revokeRole(bytes32,address)": {
        "details": "Revokes `role` from `account`. If `account` had been granted `role`, emits a {RoleRevoked} event. Requirements: - the caller must have ``role``'s admin role."
      },
      "supportsInterface(bytes4)": {
        "details": "See {IERC165-supportsInterface}."
      },
      "symbol()": {
        "details": "Returns the symbol of the token, usually a shorter version of the name."
      },
      "totalSupply()": {
        "details": "See {IERC20-totalSupply}."
      },
      "totalSupplyAt(uint256)": {
        "details": "Retrieves the total supply at the time `snapshotId` was created."
      },
      "transfer(address,uint256)": {
        "details": "See {IERC20-transfer}. Requirements: - `recipient` cannot be the zero address. - the caller must have a balance of at least `amount`."
      },
      "transferFrom(address,address,uint256)": {
        "details": "See {IERC20-transferFrom}. Emits an {Approval} event indicating the updated allowance. This is not required by the EIP. See the note at the beginning of {ERC20}. Requirements: - `sender` and `recipient` cannot be the zero address. - `sender` must have a balance of at least `amount`. - the caller must have allowance for ``sender``'s tokens of at least `amount`."
      }
    },
    "version": 1
  },
  "userdoc": {
    "kind": "user",
    "methods": {},
    "version": 1
  }
}